{
  "contractName": "BLS",
  "abi": [
    {
      "inputs": [
        {
          "internalType": "uint256[2]",
          "name": "signature",
          "type": "uint256[2]"
        },
        {
          "internalType": "uint256[4]",
          "name": "pubkey",
          "type": "uint256[4]"
        },
        {
          "internalType": "uint256[2]",
          "name": "message",
          "type": "uint256[2]"
        }
      ],
      "name": "verifySingle",
      "outputs": [
        {
          "internalType": "bool",
          "name": "",
          "type": "bool"
        }
      ],
      "stateMutability": "view",
      "type": "function"
    },
    {
      "inputs": [
        {
          "internalType": "uint256[2]",
          "name": "signature",
          "type": "uint256[2]"
        },
        {
          "internalType": "uint256[4][]",
          "name": "pubkeys",
          "type": "uint256[4][]"
        },
        {
          "internalType": "uint256[2][]",
          "name": "messages",
          "type": "uint256[2][]"
        }
      ],
      "name": "verifyMultiple",
      "outputs": [
        {
          "internalType": "bool",
          "name": "",
          "type": "bool"
        }
      ],
      "stateMutability": "view",
      "type": "function"
    }
  ],
  "bytecode": "0x608060405234801561001057600080fd5b50610ac0806100206000396000f3fe608060405234801561001057600080fd5b50600436106100365760003560e01c8063914137631461003b578063ebbdac9114610256575b600080fd5b61023e6004803603608081101561005157600080fd5b8101908080604001906002806020026040519081016040528092919082600260200280828437600081840152601f19601f8201169050808301925050505050509192919290803590602001906401000000008111156100af57600080fd5b8201836020820111156100c157600080fd5b803590602001918460808302840111640100000000831117156100e357600080fd5b9190808060200260200160405190810160405280939291908181526020016000905b8282101561015c578484839050608002016004806020026040519081016040528092919082600460200280828437600081840152601f19601f82011690508083019250505050505081526020019060010190610105565b505050505091929192908035906020019064010000000081111561017f57600080fd5b82018360208201111561019157600080fd5b803590602001918460408302840111640100000000831117156101b357600080fd5b9190808060200260200160405190810160405280939291908181526020016000905b8282101561022c578484839050604002016002806020026040519081016040528092919082600260200280828437600081840152601f19601f820116905080830192505050505050815260200190600101906101d5565b50505050509192919290505050610354565b60405180821515815260200191505060405180910390f35b61033c600480360361010081101561026d57600080fd5b8101908080604001906002806020026040519081016040528092919082600260200280828437600081840152601f19601f820116905080830192505050505050919291929080608001906004806020026040519081016040528092919082600460200280828437600081840152601f19601f820116905080830192505050505050919291929080604001906002806020026040519081016040528092919082600260200280828437600081840152601f19601f82011690508083019250505050505091929192905050506107ed565b60405180821515815260200191505060405180910390f35b60008083519050600081116103b4576040517f08c379a0000000000000000000000000000000000000000000000000000000008152600401808060200182810382526021815260200180610a6a6021913960400191505060405180910390fd5b8251811461040d576040517f08c379a0000000000000000000000000000000000000000000000000000000008152600401808060200182810382526035815260200180610a356035913960400191505060405180910390fd5b600060066001830102905060608167ffffffffffffffff8111801561043157600080fd5b506040519080825280602002602001820160405280156104605781602001602082028036833780820191505090505b5090508660006002811061047057fe5b60200201518160008151811061048257fe5b6020026020010181815250508660016002811061049b57fe5b6020020151816001815181106104ad57fe5b6020026020010181815250507f198e9393920d483a7260bfb731fb5d25f1aa493335a9e71297e485b7aef312c2816002815181106104e757fe5b6020026020010181815250507f1800deef121f1e76426a00665e5c4479674322d4f75edadd46debd5cd992f6ed8160038151811061052157fe5b6020026020010181815250507f275dc4a288d1afb3cbb1ac09187524c7db36395df7be3b99e673b13a075a65ec8160048151811061055b57fe5b6020026020010181815250507f1d9befcd05a5323e6da4d435f3b617cdb3af83285c2df711ef39c01571827f9d8160058151811061059557fe5b60200260200101818152505060005b8381101561074a578581815181106105b857fe5b60200260200101516000600281106105cc57fe5b602002015182600680840201815181106105e257fe5b6020026020010181815250508581815181106105fa57fe5b602002602001015160016002811061060e57fe5b602002015182600760068402018151811061062557fe5b60200260200101818152505086818151811061063d57fe5b602002602001015160016004811061065157fe5b602002015182600860068402018151811061066857fe5b60200260200101818152505086818151811061068057fe5b602002602001015160006004811061069457fe5b60200201518260096006840201815181106106ab57fe5b6020026020010181815250508681815181106106c357fe5b60200260200101516003600481106106d757fe5b602002015182600a6006840201815181106106ee57fe5b60200260200101818152505086818151811061070657fe5b602002602001015160026004811061071a57fe5b602002015182600b60068402018151811061073157fe5b60200260200101818152505080806001019150506105a4565b506107536109ef565b6000602082602086026020860160086107d05a03fa905080600081146107785761077a565bfe5b50806107c9576040517f08c379a0000000000000000000000000000000000000000000000000000000008152600401808060200182810382526000815260200160200191505060405180910390fd5b6000826000600181106107d857fe5b60200201511415955050505050509392505050565b60006107f7610a11565b6040518061018001604052808660006002811061081057fe5b602002015181526020018660016002811061082757fe5b602002015181526020017f198e9393920d483a7260bfb731fb5d25f1aa493335a9e71297e485b7aef312c281526020017f1800deef121f1e76426a00665e5c4479674322d4f75edadd46debd5cd992f6ed81526020017f275dc4a288d1afb3cbb1ac09187524c7db36395df7be3b99e673b13a075a65ec81526020017f1d9befcd05a5323e6da4d435f3b617cdb3af83285c2df711ef39c01571827f9d8152602001846000600281106108d657fe5b60200201518152602001846001600281106108ed57fe5b602002015181526020018560016004811061090457fe5b602002015181526020018560006004811061091b57fe5b602002015181526020018560036004811061093257fe5b602002015181526020018560026004811061094957fe5b6020020151815250905061095b6109ef565b60006020826101808560086107d05a03fa9050806000811461097c5761097e565bfe5b50806109cd576040517f08c379a0000000000000000000000000000000000000000000000000000000008152600401808060200182810382526000815260200160200191505060405180910390fd5b6000826000600181106109dc57fe5b6020020151141593505050509392505050565b6040518060200160405280600190602082028036833780820191505090505090565b604051806101800160405280600c9060208202803683378082019150509050509056fe424c533a206e756d626572206f66207075626c6963206b65797320616e64206d65737361676573206d75737420626520657175616c424c533a206e756d626572206f66207075626c6963206b6579206973207a65726fa2646970667358221220cafb35e348cf71601629a54147661f25e24c8c95dd4df678f365bbba590557d564736f6c634300060c0033",
  "immutableReferences": {},
  "source": "pragma solidity ^0.6.10;\n\nimport { modexp_3064_fd54, modexp_c191_3f52 } from \"./modexp.sol\";\n\ncontract BLS {\n  // Field order\n  uint256 constant N = 21888242871839275222246405745257275088696311157297823662689037894645226208583;\n\n  // Negated genarator of G2\n  uint256 constant nG2x1 = 11559732032986387107991004021392285783925812861821192530917403151452391805634;\n  uint256 constant nG2x0 = 10857046999023057135944570762232829481370756359578518086990519993285655852781;\n  uint256 constant nG2y1 = 17805874995975841540914202342111839520379459829704422454583296818431106115052;\n  uint256 constant nG2y0 = 13392588948715843804641432497768002650278120570034223513918757245338268106653;\n\n  // sqrt(-3)\n  uint256 constant z0 = 0x0000000000000000b3c4d79d41a91759a9e4c7e359b6b89eaec68e62effffffd;\n  // (sqrt(-3) - 1)  / 2\n  uint256 constant z1 = 0x000000000000000059e26bcea0d48bacd4f263f1acdb5c4f5763473177fffffe;\n\n  uint256 constant FIELD_MASK = 0x7fffffffffffffffffffffffffffffffffffffffffffffffffffffffffffffff;\n  uint256 constant SIGN_MASK = 0x8000000000000000000000000000000000000000000000000000000000000000;\n  uint256 constant ODD_NUM = 0x8000000000000000000000000000000000000000000000000000000000000000;\n\n  uint256 constant T24 = 0x1000000000000000000000000000000000000000000000000;\n  uint256 constant MASK24 = 0xffffffffffffffffffffffffffffffffffffffffffffffff;\n\n\n  function verifySingle(\n    uint256[2] memory signature,\n    uint256[4] memory pubkey,\n    uint256[2] memory message\n  ) public view returns (bool) {\n    uint256[12] memory input = [signature[0], signature[1], nG2x1, nG2x0, nG2y1, nG2y0, message[0], message[1], pubkey[1], pubkey[0], pubkey[3], pubkey[2]];\n    uint256[1] memory out;\n    bool success;\n    // solium-disable-next-line security/no-inline-assembly\n    assembly {\n      success := staticcall(sub(gas(), 2000), 8, input, 384, out, 32)\n      switch success\n        case 0 {\n          invalid()\n        }\n    }\n    require(success, \"\");\n    return out[0] != 0;\n  }\n\n  function verifyMultiple(\n    uint256[2] memory signature,\n    uint256[4][] memory pubkeys,\n    uint256[2][] memory messages\n  ) public view returns (bool) {\n    uint256 size = pubkeys.length;\n    require(size > 0, \"BLS: number of public key is zero\");\n    require(size == messages.length, \"BLS: number of public keys and messages must be equal\");\n    uint256 inputSize = (size + 1) * 6;\n    uint256[] memory input = new uint256[](inputSize);\n    input[0] = signature[0];\n    input[1] = signature[1];\n    input[2] = nG2x1;\n    input[3] = nG2x0;\n    input[4] = nG2y1;\n    input[5] = nG2y0;\n    for (uint256 i = 0; i < size; i++) {\n      input[i * 6 + 6] = messages[i][0];\n      input[i * 6 + 7] = messages[i][1];\n      input[i * 6 + 8] = pubkeys[i][1];\n      input[i * 6 + 9] = pubkeys[i][0];\n      input[i * 6 + 10] = pubkeys[i][3];\n      input[i * 6 + 11] = pubkeys[i][2];\n    }\n    uint256[1] memory out;\n    bool success;\n    // solium-disable-next-line security/no-inline-assembly\n    assembly {\n      success := staticcall(sub(gas(), 2000), 8, add(input, 32), mul(inputSize, 32), out, 32)\n      switch success\n        case 0 {\n          invalid()\n        }\n    }\n    require(success, \"\");\n    return out[0] != 0;\n  }\n\n  function hashToPoint(bytes memory domain, bytes memory message) internal view returns (uint256[2] memory) {\n    uint256[2] memory u = hashToField(domain, message);\n    uint256[2] memory p0 = mapToPointFT(u[0]);\n    uint256[2] memory p1 = mapToPointFT(u[1]);\n    uint256[4] memory bnAddInput;\n    bnAddInput[0] = p0[0];\n    bnAddInput[1] = p0[1];\n    bnAddInput[2] = p1[0];\n    bnAddInput[3] = p1[1];\n    bool success;\n    // solium-disable-next-line security/no-inline-assembly\n    assembly {\n      success := staticcall(sub(gas(), 2000), 6, bnAddInput, 128, p0, 64)\n      switch success\n        case 0 {\n          invalid()\n        }\n    }\n    require(success, \"\");\n    return p0;\n  }\n\n  function mapToPointTI(bytes32 _x) internal view returns (uint256[2] memory p) {\n    uint256 x = uint256(_x) % N;\n    uint256 y;\n    bool found = false;\n    while (true) {\n      y = mulmod(x, x, N);\n      y = mulmod(y, x, N);\n      y = addmod(y, 3, N);\n      (y, found) = sqrtFaster(y);\n      if (found) {\n        p[0] = x;\n        p[1] = y;\n        break;\n      }\n      x = addmod(x, 1, N);\n    }\n  }\n\n  function mapToPointFT(uint256 _x) internal view returns (uint256[2] memory p) {\n    require(_x < N, \"mapToPointFT: invalid field element\");\n    uint256 x = _x;\n    bool decision = isNonResidueFP(x);\n    uint256 a0 = mulmod(x, x, N);\n    a0 = addmod(a0, 4, N);\n    uint256 a1 = mulmod(x, z0, N);\n    uint256 a2 = mulmod(a1, a0, N);\n    a2 = inverseFaster(a2);\n    a1 = mulmod(a1, a1, N);\n    a1 = mulmod(a1, a2, N);\n\n    // x1\n    a1 = mulmod(x, a1, N);\n    x = addmod(z1, N - a1, N);\n    // check curve\n    a1 = mulmod(x, x, N);\n    a1 = mulmod(a1, x, N);\n    a1 = addmod(a1, 3, N);\n    bool found;\n    (a1, found) = sqrtFaster(a1);\n    if (found) {\n      if (decision) {\n        a1 = N - a1;\n      }\n      return [x, a1];\n    }\n\n    // x2\n    x = N - addmod(x, 1, N);\n    // check curve\n    a1 = mulmod(x, x, N);\n    a1 = mulmod(a1, x, N);\n    a1 = addmod(a1, 3, N);\n    (a1, found) = sqrtFaster(a1);\n    if (found) {\n      if (decision) {\n        a1 = N - a1;\n      }\n      return [x, a1];\n    }\n\n    // x3\n    x = mulmod(a0, a0, N);\n    x = mulmod(x, x, N);\n    x = mulmod(x, a2, N);\n    x = mulmod(x, a2, N);\n    x = addmod(x, 1, N);\n    // must be on curve\n    a1 = mulmod(x, x, N);\n    a1 = mulmod(a1, x, N);\n    a1 = addmod(a1, 3, N);\n    (a1, found) = sqrtFaster(a1);\n    require(found, \"BLS: bad ft mapping implementation\");\n    if (decision) {\n      a1 = N - a1;\n    }\n    return [x, a1];\n  }\n\n  function isValidPublicKey(uint256[4] memory publicKey) internal pure returns (bool) {\n    if ((publicKey[0] >= N) || (publicKey[1] >= N) || (publicKey[2] >= N || (publicKey[3] >= N))) {\n      return false;\n    } else {\n      return isOnCurveG2(publicKey);\n    }\n  }\n\n  function isValidSignature(uint256[2] memory signature) internal pure returns (bool) {\n    if ((signature[0] >= N) || (signature[1] >= N)) {\n      return false;\n    } else {\n      return isOnCurveG1(signature);\n    }\n  }\n\n  function pubkeyToUncompresed(uint256[2] memory compressed, uint256[2] memory y) internal pure returns (uint256[4] memory uncompressed) {\n    uint256 desicion = compressed[0] & SIGN_MASK;\n    require(desicion == ODD_NUM || y[0] & 1 != 1, \"BLS: bad y coordinate for uncompressing key\");\n    uncompressed[0] = compressed[0] & FIELD_MASK;\n    uncompressed[1] = compressed[1];\n    uncompressed[2] = y[0];\n    uncompressed[3] = y[1];\n  }\n\n  function signatureToUncompresed(uint256 compressed, uint256 y) internal pure returns (uint256[2] memory uncompressed) {\n    uint256 desicion = compressed & SIGN_MASK;\n    require(desicion == ODD_NUM || y & 1 != 1, \"BLS: bad y coordinate for uncompressing key\");\n    return [compressed & FIELD_MASK, y];\n  }\n\n  function isValidCompressedPublicKey(uint256[2] memory publicKey) internal view returns (bool) {\n    uint256 x0 = publicKey[0] & FIELD_MASK;\n    uint256 x1 = publicKey[1];\n    if ((x0 >= N) || (x1 >= N)) {\n      return false;\n    } else if ((x0 == 0) && (x1 == 0)) {\n      return false;\n    } else {\n      return isOnCurveG2([x0, x1]);\n    }\n  }\n\n  function isValidCompressedSignature(uint256 signature) internal view returns (bool) {\n    uint256 x = signature & FIELD_MASK;\n    if (x >= N) {\n      return false;\n    } else if (x == 0) {\n      return false;\n    }\n    return isOnCurveG1(x);\n  }\n\n  function isOnCurveG1(uint256[2] memory point) internal pure returns (bool _isOnCurve) {\n    // solium-disable-next-line security/no-inline-assembly\n    assembly {\n      let t0 := mload(point)\n      let t1 := mload(add(point, 32))\n      let t2 := mulmod(t0, t0, N)\n      t2 := mulmod(t2, t0, N)\n      t2 := addmod(t2, 3, N)\n      t1 := mulmod(t1, t1, N)\n      _isOnCurve := eq(t1, t2)\n    }\n  }\n\n  function isOnCurveG1(uint256 x) internal view returns (bool _isOnCurve) {\n    bool callSuccess;\n    // solium-disable-next-line security/no-inline-assembly\n    assembly {\n      let t0 := x\n      let t1 := mulmod(t0, t0, N)\n      t1 := mulmod(t1, t0, N)\n      t1 := addmod(t1, 3, N)\n\n      let freemem := mload(0x40)\n      mstore(freemem, 0x20)\n      mstore(add(freemem, 0x20), 0x20)\n      mstore(add(freemem, 0x40), 0x20)\n      mstore(add(freemem, 0x60), t1)\n      // (N - 1) / 2 = 0x183227397098d014dc2822db40c0ac2ecbc0b548b438e5469e10460b6c3e7ea3\n      mstore(add(freemem, 0x80), 0x183227397098d014dc2822db40c0ac2ecbc0b548b438e5469e10460b6c3e7ea3)\n      // N = 0x30644e72e131a029b85045b68181585d97816a916871ca8d3c208c16d87cfd47\n      mstore(add(freemem, 0xA0), 0x30644e72e131a029b85045b68181585d97816a916871ca8d3c208c16d87cfd47)\n      callSuccess := staticcall(sub(gas(), 2000), 5, freemem, 0xC0, freemem, 0x20)\n      _isOnCurve := eq(1, mload(freemem))\n    }\n  }\n\n  function isOnCurveG2(uint256[4] memory point) internal pure returns (bool _isOnCurve) {\n    // solium-disable-next-line security/no-inline-assembly\n    assembly {\n      // x0, x1\n      let t0 := mload(point)\n      let t1 := mload(add(point, 32))\n      // x0 ^ 2\n      let t2 := mulmod(t0, t0, N)\n      // x1 ^ 2\n      let t3 := mulmod(t1, t1, N)\n      // 3 * x0 ^ 2\n      let t4 := add(add(t2, t2), t2)\n      // 3 * x1 ^ 2\n      let t5 := addmod(add(t3, t3), t3, N)\n      // x0 * (x0 ^ 2 - 3 * x1 ^ 2)\n      t2 := mulmod(add(t2, sub(N, t5)), t0, N)\n      // x1 * (3 * x0 ^ 2 - x1 ^ 2)\n      t3 := mulmod(add(t4, sub(N, t3)), t1, N)\n\n      // x ^ 3 + b\n      t0 := addmod(t2, 0x2b149d40ceb8aaae81be18991be06ac3b5b4c5e559dbefa33267e6dc24a138e5, N)\n      t1 := addmod(t3, 0x009713b03af0fed4cd2cafadeed8fdf4a74fa084e52d1852e4a2bd0685c315d2, N)\n\n      // y0, y1\n      t2 := mload(add(point, 64))\n      t3 := mload(add(point, 96))\n      // y ^ 2\n      t4 := mulmod(addmod(t2, t3, N), addmod(t2, sub(N, t3), N), N)\n      t3 := mulmod(shl(1, t2), t3, N)\n\n      // y ^ 2 == x ^ 3 + b\n      _isOnCurve := and(eq(t0, t4), eq(t1, t3))\n    }\n  }\n\n  function isOnCurveG2(uint256[2] memory x) internal view returns (bool _isOnCurve) {\n    bool callSuccess;\n    // solium-disable-next-line security/no-inline-assembly\n    assembly {\n      // x0, x1\n      let t0 := mload(add(x, 0))\n      let t1 := mload(add(x, 32))\n      // x0 ^ 2\n      let t2 := mulmod(t0, t0, N)\n      // x1 ^ 2\n      let t3 := mulmod(t1, t1, N)\n      // 3 * x0 ^ 2\n      let t4 := add(add(t2, t2), t2)\n      // 3 * x1 ^ 2\n      let t5 := addmod(add(t3, t3), t3, N)\n      // x0 * (x0 ^ 2 - 3 * x1 ^ 2)\n      t2 := mulmod(add(t2, sub(N, t5)), t0, N)\n      // x1 * (3 * x0 ^ 2 - x1 ^ 2)\n      t3 := mulmod(add(t4, sub(N, t3)), t1, N)\n      // x ^ 3 + b\n      t0 := add(t2, 0x2b149d40ceb8aaae81be18991be06ac3b5b4c5e559dbefa33267e6dc24a138e5)\n      t1 := add(t3, 0x009713b03af0fed4cd2cafadeed8fdf4a74fa084e52d1852e4a2bd0685c315d2)\n\n      // is non residue ?\n      t0 := addmod(mulmod(t0, t0, N), mulmod(t1, t1, N), N)\n      let freemem := mload(0x40)\n      mstore(freemem, 0x20)\n      mstore(add(freemem, 0x20), 0x20)\n      mstore(add(freemem, 0x40), 0x20)\n      mstore(add(freemem, 0x60), t0)\n      // (N - 1) / 2 = 0x183227397098d014dc2822db40c0ac2ecbc0b548b438e5469e10460b6c3e7ea3\n      mstore(add(freemem, 0x80), 0x183227397098d014dc2822db40c0ac2ecbc0b548b438e5469e10460b6c3e7ea3)\n      // N = 0x30644e72e131a029b85045b68181585d97816a916871ca8d3c208c16d87cfd47\n      mstore(add(freemem, 0xA0), 0x30644e72e131a029b85045b68181585d97816a916871ca8d3c208c16d87cfd47)\n      callSuccess := staticcall(sub(gas(), 2000), 5, freemem, 0xC0, freemem, 0x20)\n      _isOnCurve := eq(1, mload(freemem))\n    }\n  }\n\n  function isNonResidueFP(uint256 e) internal view returns (bool isNonResidue) {\n    bool callSuccess;\n    // solium-disable-next-line security/no-inline-assembly\n    assembly {\n      let freemem := mload(0x40)\n      mstore(freemem, 0x20)\n      mstore(add(freemem, 0x20), 0x20)\n      mstore(add(freemem, 0x40), 0x20)\n      mstore(add(freemem, 0x60), e)\n      // (N - 1) / 2 = 0x183227397098d014dc2822db40c0ac2ecbc0b548b438e5469e10460b6c3e7ea3\n      mstore(add(freemem, 0x80), 0x183227397098d014dc2822db40c0ac2ecbc0b548b438e5469e10460b6c3e7ea3)\n      // N = 0x30644e72e131a029b85045b68181585d97816a916871ca8d3c208c16d87cfd47\n      mstore(add(freemem, 0xA0), 0x30644e72e131a029b85045b68181585d97816a916871ca8d3c208c16d87cfd47)\n      callSuccess := staticcall(sub(gas(), 2000), 5, freemem, 0xC0, freemem, 0x20)\n      isNonResidue := eq(1, mload(freemem))\n    }\n    require(callSuccess, \"BLS: isNonResidueFP modexp call failed\");\n    return !isNonResidue;\n  }\n\n  function isNonResidueFP2(uint256[2] memory e) internal view returns (bool isNonResidue) {\n    uint256 a = addmod(mulmod(e[0], e[0], N), mulmod(e[1], e[1], N), N);\n    bool callSuccess;\n    // solium-disable-next-line security/no-inline-assembly\n    assembly {\n      let freemem := mload(0x40)\n      mstore(freemem, 0x20)\n      mstore(add(freemem, 0x20), 0x20)\n      mstore(add(freemem, 0x40), 0x20)\n      mstore(add(freemem, 0x60), a)\n      // (N - 1) / 2 = 0x183227397098d014dc2822db40c0ac2ecbc0b548b438e5469e10460b6c3e7ea3\n      mstore(add(freemem, 0x80), 0x183227397098d014dc2822db40c0ac2ecbc0b548b438e5469e10460b6c3e7ea3)\n      // N = 0x30644e72e131a029b85045b68181585d97816a916871ca8d3c208c16d87cfd47\n      mstore(add(freemem, 0xA0), 0x30644e72e131a029b85045b68181585d97816a916871ca8d3c208c16d87cfd47)\n      callSuccess := staticcall(sub(gas(), 2000), 5, freemem, 0xC0, freemem, 0x20)\n      isNonResidue := eq(1, mload(freemem))\n    }\n    require(callSuccess, \"BLS: isNonResidueFP2 modexp call failed\");\n    return !isNonResidue;\n  }\n\n  function sqrtFaster(uint256 xx) internal view returns (uint256 x, bool hasRoot) {\n    x = modexp_c191_3f52.run(xx);\n    hasRoot = mulmod(x, x, N) == xx;\n  }\n\n  function sqrt(uint256 xx) internal view returns (uint256 x, bool hasRoot) {\n    bool callSuccess;\n    // solium-disable-next-line security/no-inline-assembly\n    assembly {\n      let freemem := mload(0x40)\n      mstore(freemem, 0x20)\n      mstore(add(freemem, 0x20), 0x20)\n      mstore(add(freemem, 0x40), 0x20)\n      mstore(add(freemem, 0x60), xx)\n      // (N + 1) / 4 = 0xc19139cb84c680a6e14116da060561765e05aa45a1c72a34f082305b61f3f52\n      mstore(add(freemem, 0x80), 0xc19139cb84c680a6e14116da060561765e05aa45a1c72a34f082305b61f3f52)\n      // N = 0x30644e72e131a029b85045b68181585d97816a916871ca8d3c208c16d87cfd47\n      mstore(add(freemem, 0xA0), 0x30644e72e131a029b85045b68181585d97816a916871ca8d3c208c16d87cfd47)\n      callSuccess := staticcall(sub(gas(), 2000), 5, freemem, 0xC0, freemem, 0x20)\n      x := mload(freemem)\n      hasRoot := eq(xx, mulmod(x, x, N))\n    }\n    require(callSuccess, \"BLS: sqrt modexp call failed\");\n  }\n\n  function inverseFaster(uint256 a) internal view returns (uint256) {\n    return modexp_3064_fd54.run(a);\n  }\n\n  function inverse(uint256 x) internal view returns (uint256 ix) {\n    bool callSuccess;\n    // solium-disable-next-line security/no-inline-assembly\n    assembly {\n      let freemem := mload(0x40)\n      mstore(freemem, 0x20)\n      mstore(add(freemem, 0x20), 0x20)\n      mstore(add(freemem, 0x40), 0x20)\n      mstore(add(freemem, 0x60), x)\n      // (N - 2) = 0x30644e72e131a029b85045b68181585d97816a916871ca8d3c208c16d87cfd45\n      mstore(add(freemem, 0x80), 0x30644e72e131a029b85045b68181585d97816a916871ca8d3c208c16d87cfd45)\n      // N = 0x30644e72e131a029b85045b68181585d97816a916871ca8d3c208c16d87cfd47\n      mstore(add(freemem, 0xA0), 0x30644e72e131a029b85045b68181585d97816a916871ca8d3c208c16d87cfd47)\n      callSuccess := staticcall(sub(gas(), 2000), 5, freemem, 0xC0, freemem, 0x20)\n      ix := mload(freemem)\n    }\n    require(callSuccess, \"BLS: inverse modexp call failed\");\n  }\n\n  function hashToField(bytes memory domain, bytes memory messages) internal pure returns (uint256[2] memory) {\n    bytes memory _msg = expandMsgTo96(domain, messages);\n    uint256 z0;\n    uint256 z1;\n    uint256 a0;\n    uint256 a1;\n    // solium-disable-next-line security/no-inline-assembly\n    assembly {\n      let p := add(_msg, 24)\n      z1 := and(mload(p), MASK24)\n      p := add(_msg, 48)\n      z0 := and(mload(p), MASK24)\n      a0 := addmod(mulmod(z1, T24, N), z0, N)\n      p := add(_msg, 72)\n      z1 := and(mload(p), MASK24)\n      p := add(_msg, 96)\n      z0 := and(mload(p), MASK24)\n      a1 := addmod(mulmod(z1, T24, N), z0, N)\n    }\n    return [a0, a1];\n  }\n\n  function expandMsgTo96(bytes memory domain, bytes memory message) internal pure returns (bytes memory) {\n    uint256 t1 = domain.length;\n    require(t1 < 256, \"BLS: invalid domain length\");\n    // zero<64>|msg<var>|lib_str<2>|I2OSP(0, 1)<1>|dst<var>|dst_len<1>\n    uint256 t0 = message.length;\n    bytes memory msg0 = new bytes(t1 + t0 + 64 + 4);\n    bytes memory out = new bytes(96);\n    // b0\n    // solium-disable-next-line security/no-inline-assembly\n    assembly {\n      let p := add(msg0, 96)\n\n      let z := 0\n      for {\n\n      } lt(z, t0) {\n        z := add(z, 32)\n      } {\n        mstore(add(p, z), mload(add(message, add(z, 32))))\n      }\n      p := add(p, t0)\n\n      mstore8(p, 0)\n      p := add(p, 1)\n      mstore8(p, 96)\n      p := add(p, 1)\n      mstore8(p, 0)\n      p := add(p, 1)\n\n      mstore(p, mload(add(domain, 32)))\n      p := add(p, t1)\n      mstore8(p, t1)\n    }\n    bytes32 b0 = sha256(msg0);\n    bytes32 bi;\n    t0 = t1 + 34;\n\n    // resize intermediate message\n    // solium-disable-next-line security/no-inline-assembly\n    assembly {\n      mstore(msg0, t0)\n    }\n\n    // b1\n\n    // solium-disable-next-line security/no-inline-assembly\n    assembly {\n      mstore(add(msg0, 32), b0)\n      mstore8(add(msg0, 64), 1)\n      mstore(add(msg0, 65), mload(add(domain, 32)))\n      mstore8(add(msg0, add(t1, 65)), t1)\n    }\n\n    bi = sha256(msg0);\n\n    // solium-disable-next-line security/no-inline-assembly\n    assembly {\n      mstore(add(out, 32), bi)\n    }\n\n    // b2\n\n    // solium-disable-next-line security/no-inline-assembly\n    assembly {\n      let t := xor(b0, bi)\n      mstore(add(msg0, 32), t)\n      mstore8(add(msg0, 64), 2)\n      mstore(add(msg0, 65), mload(add(domain, 32)))\n      mstore8(add(msg0, add(t1, 65)), t1)\n    }\n\n    bi = sha256(msg0);\n\n    // solium-disable-next-line security/no-inline-assembly\n    assembly {\n      mstore(add(out, 64), bi)\n    }\n\n    // // b3\n\n    // solium-disable-next-line security/no-inline-assembly\n    assembly {\n      let t := xor(b0, bi)\n      mstore(add(msg0, 32), t)\n      mstore8(add(msg0, 64), 3)\n      mstore(add(msg0, 65), mload(add(domain, 32)))\n      mstore8(add(msg0, add(t1, 65)), t1)\n    }\n\n    bi = sha256(msg0);\n\n    // solium-disable-next-line security/no-inline-assembly\n    assembly {\n      mstore(add(out, 96), bi)\n    }\n\n    return out;\n  }\n}\n",
  "sourcePath": "/home/eduardo/Documentos/ethWorker/contracts/BLS.sol",
  "compiler": {
    "name": "solc",
    "version": "0.6.12+commit.27d51765.Emscripten.clang"
  },
  "schemaVersion": "3.3.4",
  "updatedAt": "2021-05-19T11:07:45.323Z",
  "devdoc": {
    "kind": "dev",
    "methods": {},
    "version": 1
  },
  "userdoc": {
    "kind": "user",
    "methods": {},
    "version": 1
  }
}