{
  "contractName": "WorkerProofs",
  "abi": [
    {
      "inputs": [
        {
          "internalType": "uint256[2]",
          "name": "pk",
          "type": "uint256[2]"
        }
      ],
      "name": "setupWorker",
      "outputs": [],
      "stateMutability": "nonpayable",
      "type": "function"
    },
    {
      "inputs": [
        {
          "internalType": "uint256",
          "name": "period",
          "type": "uint256"
        },
        {
          "internalType": "uint256",
          "name": "aggsignature",
          "type": "uint256"
        },
        {
          "internalType": "uint256[]",
          "name": "workerIds",
          "type": "uint256[]"
        }
      ],
      "name": "addSign",
      "outputs": [],
      "stateMutability": "nonpayable",
      "type": "function"
    },
    {
      "inputs": [
        {
          "internalType": "uint256",
          "name": "period",
          "type": "uint256"
        }
      ],
      "name": "getAggSign",
      "outputs": [
        {
          "components": [
            {
              "components": [
                {
                  "internalType": "uint256",
                  "name": "id",
                  "type": "uint256"
                },
                {
                  "internalType": "uint256[2]",
                  "name": "pk",
                  "type": "uint256[2]"
                }
              ],
              "internalType": "struct WorkerProofs.Worker[]",
              "name": "workers",
              "type": "tuple[]"
            },
            {
              "components": [
                {
                  "internalType": "uint256",
                  "name": "aggSign",
                  "type": "uint256"
                },
                {
                  "internalType": "uint256[]",
                  "name": "workerIds",
                  "type": "uint256[]"
                }
              ],
              "internalType": "struct WorkerProofs.PeriodProof",
              "name": "periodProof",
              "type": "tuple"
            }
          ],
          "internalType": "struct WorkerProofs.RData",
          "name": "",
          "type": "tuple"
        }
      ],
      "stateMutability": "view",
      "type": "function"
    }
  ],
  "bytecode": "0x608060405234801561001057600080fd5b50610a9c806100206000396000f3fe608060405234801561001057600080fd5b50600436106100415760003560e01c80630eeebfc2146100465780633e2ce94614610062578063a95c2b0114610092575b600080fd5b610060600480360381019061005b9190610538565b6100ae565b005b61007c60048036038101906100779190610565565b61016f565b6040516100899190610803565b60405180910390f35b6100ac60048036038101906100a79190610592565b6102b8565b005b6000604051806040016040528060016000805490506100cd919061093b565b81526020018381525090806001815401808255809150506001900390600052602060002090600302016000909190919091506000820151816000015560208201518160010190600261012092919061030f565b505050600080549050600160003373ffffffffffffffffffffffffffffffffffffffff1673ffffffffffffffffffffffffffffffffffffffff1681526020019081526020016000208190555050565b61017761034f565b60405180604001604052806000805480602002602001604051908101604052809291908181526020016000905b828210156102255783829060005260206000209060030201604051806040016040529081600082015481526020016001820160028060200260405190810160405280929190826002801561020d576020028201915b8154815260200190600101908083116101f9575b505050505081525050815260200190600101906101a4565b5050505081526020016002600085815260200190815260200160002060405180604001604052908160008201548152602001600182018054806020026020016040519081016040528092919081815260200182805480156102a557602002820191906000526020600020905b815481526020019060010190808311610291575b5050505050815250508152509050919050565b6040518060400160405280838152602001828152506002600085815260200190815260200160002060008201518160000155602082015181600101908051906020019061030692919061036f565b50905050505050565b826002810192821561033e579160200282015b8281111561033d578251825591602001919060010190610322565b5b50905061034b91906103bc565b5090565b6040518060400160405280606081526020016103696103d9565b81525090565b8280548282559060005260206000209081019282156103ab579160200282015b828111156103aa57825182559160200191906001019061038f565b5b5090506103b891906103bc565b5090565b5b808211156103d55760008160009055506001016103bd565b5090565b604051806040016040528060008152602001606081525090565b60006104066104018461084a565b610825565b905080828560208602820111156104205761041f610a2f565b5b60005b8581101561045057816104368882610523565b845260208401935060208301925050600181019050610423565b5050509392505050565b600061046d61046884610870565b610825565b905080838252602082019050828560208602820111156104905761048f610a2f565b5b60005b858110156104c057816104a68882610523565b845260208401935060208301925050600181019050610493565b5050509392505050565b600082601f8301126104df576104de610a2a565b5b60026104ec8482856103f3565b91505092915050565b600082601f83011261050a57610509610a2a565b5b813561051a84826020860161045a565b91505092915050565b60008135905061053281610a4f565b92915050565b60006040828403121561054e5761054d610a39565b5b600061055c848285016104ca565b91505092915050565b60006020828403121561057b5761057a610a39565b5b600061058984828501610523565b91505092915050565b6000806000606084860312156105ab576105aa610a39565b5b60006105b986828701610523565b93505060206105ca86828701610523565b925050604084013567ffffffffffffffff8111156105eb576105ea610a34565b5b6105f7868287016104f5565b9150509250925092565b600061060d83836107c5565b60608301905092915050565b600061062583836107f4565b60208301905092915050565b600061063c826108c6565b610646818561090e565b93506106518361089c565b8060005b838110156106825781516106698882610601565b9750610674836108e7565b925050600181019050610655565b5085935050505092915050565b610698816108d1565b6106a2818461091f565b92506106ad826108ac565b8060005b838110156106de5781516106c58782610619565b96506106d0836108f4565b9250506001810190506106b1565b505050505050565b60006106f1826108dc565b6106fb818561092a565b9350610706836108b6565b8060005b8381101561073757815161071e8882610619565b975061072983610901565b92505060018101905061070a565b5085935050505092915050565b600060408301600083015161075c60008601826107f4565b506020830151848203602086015261077482826106e6565b9150508091505092915050565b6000604083016000830151848203600086015261079e8282610631565b915050602083015184820360208601526107b88282610744565b9150508091505092915050565b6060820160008201516107db60008501826107f4565b5060208201516107ee602085018261068f565b50505050565b6107fd81610991565b82525050565b6000602082019050818103600083015261081d8184610781565b905092915050565b600061082f610840565b905061083b828261099b565b919050565b6000604051905090565b600067ffffffffffffffff821115610865576108646109fb565b5b602082029050919050565b600067ffffffffffffffff82111561088b5761088a6109fb565b5b602082029050602081019050919050565b6000819050602082019050919050565b6000819050919050565b6000819050602082019050919050565b600081519050919050565b600060029050919050565b600081519050919050565b6000602082019050919050565b6000602082019050919050565b6000602082019050919050565b600082825260208201905092915050565b600081905092915050565b600082825260208201905092915050565b600061094682610991565b915061095183610991565b9250827fffffffffffffffffffffffffffffffffffffffffffffffffffffffffffffffff03821115610986576109856109cc565b5b828201905092915050565b6000819050919050565b6109a482610a3e565b810181811067ffffffffffffffff821117156109c3576109c26109fb565b5b80604052505050565b7f4e487b7100000000000000000000000000000000000000000000000000000000600052601160045260246000fd5b7f4e487b7100000000000000000000000000000000000000000000000000000000600052604160045260246000fd5b600080fd5b600080fd5b600080fd5b600080fd5b6000601f19601f8301169050919050565b610a5881610991565b8114610a6357600080fd5b5056fea264697066735822122031134d81fa2cae27cb9f8e9780407eab68a1b3050cb6ab74e76ac19e16aec35664736f6c63430008060033",
  "immutableReferences": {},
  "source": "pragma solidity ^0.8.0;\n\ncontract WorkerProofs {\n\n    struct Worker {\n    \tuint256 id;\n        uint256[2] pk;\n    }\n    \n    Worker[] workers;\n    mapping(address => uint) workerId;\n\n    struct PeriodProof {\n        uint256 aggSign;\n        uint256[] workerIds;\n    }\n\n    mapping(uint256 => PeriodProof) periodProof;\n\n    struct RData {\n        Worker[] workers;\n        PeriodProof periodProof;\n    }\n\n    function setupWorker(uint256[2] memory pk) public {\n        workers.push(Worker(workers.length+1,pk));\n    \tworkerId[msg.sender] = workers.length;\n    }\n\n    function addSign(uint256 period, uint256 aggsignature, uint256[] memory workerIds) public {\n        periodProof[period] = PeriodProof(\n            aggsignature,\n            workerIds\n        );\n    }\n\n    function getAggSign(uint256 period) public view returns (RData memory) {\n        return RData(workers,periodProof[period]);\n    }\n\n}",
  "sourcePath": "/home/eduardo/Documentos/ethProofs/contracts/WorkerProofs.sol",
  "compiler": {
    "name": "solc",
    "version": "0.8.6+commit.11564f7e.Emscripten.clang"
  },
  "schemaVersion": "3.3.4",
  "updatedAt": "2021-07-29T19:42:44.732Z",
  "devdoc": {
    "kind": "dev",
    "methods": {},
    "version": 1
  },
  "userdoc": {
    "kind": "user",
    "methods": {},
    "version": 1
  }
}