{
  "contractName": "WorkerClockIn",
  "abi": [
    {
      "inputs": [
        {
          "internalType": "uint256",
          "name": "period",
          "type": "uint256"
        }
      ],
      "name": "nextPeriod",
      "outputs": [],
      "stateMutability": "nonpayable",
      "type": "function"
    },
    {
      "inputs": [
        {
          "internalType": "address",
          "name": "workerAddress",
          "type": "address"
        },
        {
          "internalType": "uint256[2]",
          "name": "pk",
          "type": "uint256[2]"
        }
      ],
      "name": "setupWorker",
      "outputs": [],
      "stateMutability": "nonpayable",
      "type": "function"
    },
    {
      "inputs": [
        {
          "internalType": "address",
          "name": "workerAddress",
          "type": "address"
        },
        {
          "internalType": "uint256",
          "name": "signature",
          "type": "uint256"
        },
        {
          "internalType": "uint256",
          "name": "period",
          "type": "uint256"
        }
      ],
      "name": "clockIn",
      "outputs": [],
      "stateMutability": "nonpayable",
      "type": "function"
    },
    {
      "inputs": [
        {
          "internalType": "uint256",
          "name": "period",
          "type": "uint256"
        }
      ],
      "name": "getSignatures",
      "outputs": [
        {
          "components": [
            {
              "internalType": "uint256[]",
              "name": "workerIds",
              "type": "uint256[]"
            },
            {
              "internalType": "uint256[]",
              "name": "signatures",
              "type": "uint256[]"
            },
            {
              "components": [
                {
                  "internalType": "uint256",
                  "name": "id",
                  "type": "uint256"
                },
                {
                  "internalType": "uint256[2]",
                  "name": "pk",
                  "type": "uint256[2]"
                }
              ],
              "internalType": "struct WorkerClockIn.Worker[]",
              "name": "workers",
              "type": "tuple[]"
            }
          ],
          "internalType": "struct WorkerClockIn.RData",
          "name": "",
          "type": "tuple"
        }
      ],
      "stateMutability": "view",
      "type": "function"
    }
  ],
  "bytecode": "0x608060405234801561001057600080fd5b50610c77806100206000396000f3fe608060405234801561001057600080fd5b506004361061004c5760003560e01c8063a4e5e32814610051578063b87d13761461006d578063d7d6ab8614610089578063f4eccb8f146100a5575b600080fd5b61006b600480360381019061006691906107ba565b6100d5565b005b61008760048036038101906100829190610727565b610107565b005b6100a3600480360381019061009e9190610767565b61021a565b005b6100bf60048036038101906100ba91906107ba565b61044f565b6040516100cc91906109c6565b60405180910390f35b60016002600083815260200190815260200160002060000160006101000a81548160ff02191690831515021790555050565b6000600160008473ffffffffffffffffffffffffffffffffffffffff1673ffffffffffffffffffffffffffffffffffffffff168152602001908152602001600020541461015357600080fd5b6000604051806040016040528060016000805490506101729190610ad2565b8152602001838152509080600181540180825580915050600190039060005260206000209060030201600090919091909150600082015181600001556020820151816001019060026101c59291906105ed565b50505060008080549050905080600160008573ffffffffffffffffffffffffffffffffffffffff1673ffffffffffffffffffffffffffffffffffffffff16815260200190815260200160002081905550505050565b6000600160008573ffffffffffffffffffffffffffffffffffffffff1673ffffffffffffffffffffffffffffffffffffffff16815260200190815260200160002054141561026757600080fd5b6002600082815260200190815260200160002060000160009054906101000a900460ff1661029457600080fd5b600260008281526020019081526020016000206001016000600160008673ffffffffffffffffffffffffffffffffffffffff1673ffffffffffffffffffffffffffffffffffffffff16815260200190815260200160002054815260200190815260200160002060009054906101000a900460ff161561031257600080fd5b6001600260008381526020019081526020016000206001016000600160008773ffffffffffffffffffffffffffffffffffffffff1673ffffffffffffffffffffffffffffffffffffffff16815260200190815260200160002054815260200190815260200160002060006101000a81548160ff02191690831515021790555060026000828152602001908152602001600020600201600160008573ffffffffffffffffffffffffffffffffffffffff1673ffffffffffffffffffffffffffffffffffffffff16815260200190815260200160002054908060018154018082558091505060019003906000526020600020016000909190919091505560026000828152602001908152602001600020600301829080600181540180825580915050600190039060005260206000200160009091909190915055505050565b61045761062d565b60006040518060600160405280600260008681526020019081526020016000206002018054806020026020016040519081016040528092919081815260200182805480156104c457602002820191906000526020600020905b8154815260200190600101908083116104b0575b505050505081526020016002600086815260200190815260200160002060030180548060200260200160405190810160405280929190818152602001828054801561052e57602002820191906000526020600020905b81548152602001906001019080831161051a575b505050505081526020016000805480602002602001604051908101604052809291908181526020016000905b828210156105db578382906000526020600020906003020160405180604001604052908160008201548152602001600182016002806020026040519081016040528092919082600280156105c3576020028201915b8154815260200190600101908083116105af575b5050505050815250508152602001906001019061055a565b50505050815250905080915050919050565b826002810192821561061c579160200282015b8281111561061b578251825591602001919060010190610600565b5b509050610629919061064e565b5090565b60405180606001604052806060815260200160608152602001606081525090565b5b8082111561066757600081600090555060010161064f565b5090565b600061067e61067984610a0d565b6109e8565b9050808285602086028201111561069857610697610bf8565b5b60005b858110156106c857816106ae8882610712565b84526020840193506020830192505060018101905061069b565b5050509392505050565b6000813590506106e181610c13565b92915050565b600082601f8301126106fc576106fb610bf3565b5b600261070984828561066b565b91505092915050565b60008135905061072181610c2a565b92915050565b6000806060838503121561073e5761073d610bfd565b5b600061074c858286016106d2565b925050602061075d858286016106e7565b9150509250929050565b6000806000606084860312156107805761077f610bfd565b5b600061078e868287016106d2565b935050602061079f86828701610712565b92505060406107b086828701610712565b9150509250925092565b6000602082840312156107d0576107cf610bfd565b5b60006107de84828501610712565b91505092915050565b60006107f38383610988565b60608301905092915050565b600061080b83836109b7565b60208301905092915050565b600061082282610a5d565b61082c8185610aa5565b935061083783610a33565b8060005b8381101561086857815161084f88826107e7565b975061085a83610a7e565b92505060018101905061083b565b5085935050505092915050565b61087e81610a68565b6108888184610ab6565b925061089382610a43565b8060005b838110156108c45781516108ab87826107ff565b96506108b683610a8b565b925050600181019050610897565b505050505050565b60006108d782610a73565b6108e18185610ac1565b93506108ec83610a4d565b8060005b8381101561091d57815161090488826107ff565b975061090f83610a98565b9250506001810190506108f0565b5085935050505092915050565b6000606083016000830151848203600086015261094782826108cc565b9150506020830151848203602086015261096182826108cc565b9150506040830151848203604086015261097b8282610817565b9150508091505092915050565b60608201600082015161099e60008501826109b7565b5060208201516109b16020850182610875565b50505050565b6109c081610b5a565b82525050565b600060208201905081810360008301526109e0818461092a565b905092915050565b60006109f2610a03565b90506109fe8282610b64565b919050565b6000604051905090565b600067ffffffffffffffff821115610a2857610a27610bc4565b5b602082029050919050565b6000819050602082019050919050565b6000819050919050565b6000819050602082019050919050565b600081519050919050565b600060029050919050565b600081519050919050565b6000602082019050919050565b6000602082019050919050565b6000602082019050919050565b600082825260208201905092915050565b600081905092915050565b600082825260208201905092915050565b6000610add82610b5a565b9150610ae883610b5a565b9250827fffffffffffffffffffffffffffffffffffffffffffffffffffffffffffffffff03821115610b1d57610b1c610b95565b5b828201905092915050565b6000610b3382610b3a565b9050919050565b600073ffffffffffffffffffffffffffffffffffffffff82169050919050565b6000819050919050565b610b6d82610c02565b810181811067ffffffffffffffff82111715610b8c57610b8b610bc4565b5b80604052505050565b7f4e487b7100000000000000000000000000000000000000000000000000000000600052601160045260246000fd5b7f4e487b7100000000000000000000000000000000000000000000000000000000600052604160045260246000fd5b600080fd5b600080fd5b600080fd5b6000601f19601f8301169050919050565b610c1c81610b28565b8114610c2757600080fd5b50565b610c3381610b5a565b8114610c3e57600080fd5b5056fea2646970667358221220663861ebd69a777cb46aa1ba0d1dfe269a47fc86c0fcab176f32e6d4cd448b5964736f6c63430008060033",
  "immutableReferences": {},
  "source": "pragma solidity ^0.8.0;\n\ncontract WorkerClockIn {\n    \n    struct Worker {\n    \tuint256 id;\n        uint256[2] pk;\n    }\n    \n    Worker[] workers;\n    mapping(address => uint) workerId;\n\n    struct PeriodWorked {\n        bool isActive;\n        mapping(uint => bool) hasWorked;\n        uint256[] workerIds;\n        uint256[] signatures;\n    }\n\n    mapping(uint => PeriodWorked) periodWorked;\n\n    struct RData {\n        uint256[] workerIds;\n        uint256[] signatures;\n        Worker[] workers;\n    }\n    \n    //-----------------------Functions-----------------------\n\n    function nextPeriod(uint period) public {\n        periodWorked[period].isActive = true;\n    }\n    \n    function setupWorker(address workerAddress, uint256[2] memory pk) public {\n        require(workerId[workerAddress] == 0);\n        workers.push(Worker(workers.length+1,pk));\n        uint id = workers.length;\n    \tworkerId[workerAddress] = id;\n    }\n    \n    function clockIn(address workerAddress, uint256 signature, uint period) public {\n    \trequire(workerId[workerAddress] != 0);\n    \trequire(periodWorked[period].isActive);\n        require(!periodWorked[period].hasWorked[workerId[workerAddress]]);\n        periodWorked[period].hasWorked[workerId[workerAddress]] = true;\n        periodWorked[period].workerIds.push(workerId[workerAddress]);\n        periodWorked[period].signatures.push(signature);\n    }\n\n    function getSignatures(uint period) public view returns(RData memory) {\n        RData memory rdata = RData(periodWorked[period].workerIds, periodWorked[period].signatures, workers);\n        return rdata;\n    }\n\n}\n",
  "sourcePath": "/home/eduardo/Documentos/emWorker/contracts/WorkerClockIn.sol",
  "compiler": {
    "name": "solc",
    "version": "0.8.6+commit.11564f7e.Emscripten.clang"
  },
  "schemaVersion": "3.3.4",
  "updatedAt": "2021-07-30T07:38:45.161Z",
  "devdoc": {
    "kind": "dev",
    "methods": {},
    "version": 1
  },
  "userdoc": {
    "kind": "user",
    "methods": {},
    "version": 1
  }
}